{
  "contractName": "DataAsset",
  "abi": [
    {
      "anonymous": false,
      "inputs": [
        {
          "indexed": true,
          "internalType": "uint256",
          "name": "dataId",
          "type": "uint256"
        },
        {
          "indexed": true,
          "internalType": "address",
          "name": "owner",
          "type": "address"
        },
        {
          "indexed": false,
          "internalType": "uint256",
          "name": "price",
          "type": "uint256"
        }
      ],
      "name": "DataListed",
      "type": "event"
    },
    {
      "anonymous": false,
      "inputs": [
        {
          "indexed": true,
          "internalType": "uint256",
          "name": "dataId",
          "type": "uint256"
        },
        {
          "indexed": true,
          "internalType": "address",
          "name": "buyer",
          "type": "address"
        },
        {
          "indexed": true,
          "internalType": "address",
          "name": "seller",
          "type": "address"
        },
        {
          "indexed": false,
          "internalType": "uint256",
          "name": "price",
          "type": "uint256"
        }
      ],
      "name": "DataPurchased",
      "type": "event"
    },
    {
      "anonymous": false,
      "inputs": [
        {
          "indexed": true,
          "internalType": "uint256",
          "name": "dataId",
          "type": "uint256"
        }
      ],
      "name": "ListingCancelled",
      "type": "event"
    },
    {
      "anonymous": false,
      "inputs": [
        {
          "indexed": true,
          "internalType": "uint256",
          "name": "dataId",
          "type": "uint256"
        },
        {
          "indexed": true,
          "internalType": "address",
          "name": "previousOwner",
          "type": "address"
        },
        {
          "indexed": true,
          "internalType": "address",
          "name": "newOwner",
          "type": "address"
        }
      ],
      "name": "OwnershipTransferred",
      "type": "event"
    },
    {
      "anonymous": false,
      "inputs": [
        {
          "indexed": true,
          "internalType": "uint256",
          "name": "dataId",
          "type": "uint256"
        },
        {
          "indexed": false,
          "internalType": "uint256",
          "name": "newPrice",
          "type": "uint256"
        }
      ],
      "name": "PriceUpdated",
      "type": "event"
    },
    {
      "constant": true,
      "inputs": [
        {
          "internalType": "uint256",
          "name": "",
          "type": "uint256"
        }
      ],
      "name": "dataAssets",
      "outputs": [
        {
          "internalType": "string",
          "name": "metadata",
          "type": "string"
        },
        {
          "internalType": "uint256",
          "name": "price",
          "type": "uint256"
        },
        {
          "internalType": "address payable",
          "name": "owner",
          "type": "address"
        },
        {
          "internalType": "bool",
          "name": "isSold",
          "type": "bool"
        },
        {
          "internalType": "bool",
          "name": "isListed",
          "type": "bool"
        }
      ],
      "payable": false,
      "stateMutability": "view",
      "type": "function"
    },
    {
      "constant": true,
      "inputs": [],
      "name": "dataCounter",
      "outputs": [
        {
          "internalType": "uint256",
          "name": "",
          "type": "uint256"
        }
      ],
      "payable": false,
      "stateMutability": "view",
      "type": "function"
    },
    {
      "constant": true,
      "inputs": [
        {
          "internalType": "address",
          "name": "",
          "type": "address"
        }
      ],
      "name": "pendingWithdrawals",
      "outputs": [
        {
          "internalType": "uint256",
          "name": "",
          "type": "uint256"
        }
      ],
      "payable": false,
      "stateMutability": "view",
      "type": "function"
    },
    {
      "constant": false,
      "inputs": [
        {
          "internalType": "string",
          "name": "_metadata",
          "type": "string"
        },
        {
          "internalType": "uint256",
          "name": "_price",
          "type": "uint256"
        }
      ],
      "name": "listData",
      "outputs": [],
      "payable": false,
      "stateMutability": "nonpayable",
      "type": "function"
    }
  ],
  "bytecode": "0x6080604052600060015534801561001557600080fd5b506104a9806100256000396000f3fe608060405234801561001057600080fd5b506004361061004c5760003560e01c80631fc9432e1461005157806366dda47f146100c35780639418feaa14610183578063f3f437031461019d575b600080fd5b6100c16004803603604081101561006757600080fd5b81019060208101813564010000000081111561008257600080fd5b82018360208201111561009457600080fd5b803590602001918460018302840111640100000000831117156100b657600080fd5b9193509150356101c3565b005b6100e0600480360360208110156100d957600080fd5b50356102f7565b6040805160208082018790526001600160a01b038616928201929092528315156060820152821515608082015260a080825287519082015286519091829160c083019189019080838360005b8381101561014457818101518382015260200161012c565b50505050905090810190601f1680156101715780820380516001836020036101000a031916815260200191505b50965050505050505060405180910390f35b61018b6103c1565b60408051918252519081900360200190f35b61018b600480360360208110156101b357600080fd5b50356001600160a01b03166103c7565b60018054810190556040805160c06020601f8601819004028201810190925260a0810184815290918291908690869081908501838280828437600092018290525093855250505060208083018590523360408085019190915260608401839052600160809094018490529254825281815291902082518051919261024c928492909101906103d9565b506020828101516001808401919091556040808501516002909401805460608701516080909701511515600160a81b0260ff60a81b19971515600160a01b0260ff60a01b196001600160a01b039098166001600160a01b03199093169290921796909616179590951693909317909355915481518481529151339391927fda6e3f4579b83369067bea5d00c3f6f4ea90ea71243054b08c3c0d93a5a1bae592908290030190a3505050565b6000602081815291815260409081902080548251601f60026000196101006001861615020190931692909204918201859004850281018501909352808352909283919083018282801561038b5780601f106103605761010080835404028352916020019161038b565b820191906000526020600020905b81548152906001019060200180831161036e57829003601f168201915b50505060018401546002909401549293926001600160a01b038116925060ff600160a01b820481169250600160a81b9091041685565b60015481565b60026020526000908152604090205481565b828054600181600116156101000203166002900490600052602060002090601f016020900481019282601f1061041a57805160ff1916838001178555610447565b82800160010185558215610447579182015b8281111561044757825182559160200191906001019061042c565b50610453929150610457565b5090565b61047191905b80821115610453576000815560010161045d565b9056fea265627a7a7231582042dec86853cbc6c1215b4ed64445f5549f40e7f274e997a9caf520ed898888d864736f6c63430005100032",
  "source": "pragma solidity >=0.4.22 <0.7.0;\n\ncontract DataAsset {\n\n    // Struct to represent a data asset\n    struct Data {\n        string metadata;\n        uint256 price;\n        address payable owner;\n        bool isSold;\n        bool isListed;\n    }\n\n    // Mapping from data ID to Data struct\n    mapping(uint256 => Data) public dataAssets;\n    uint256 public dataCounter = 0;\n\n    // Mapping to track pending withdrawals\n    mapping(address => uint256) public pendingWithdrawals;\n\n    // Events\n    event DataListed(uint256 indexed dataId, address indexed owner, uint256 price);\n    event DataPurchased(uint256 indexed dataId, address indexed buyer, address indexed seller, uint256 price);\n    event PriceUpdated(uint256 indexed dataId, uint256 newPrice);\n    event ListingCancelled(uint256 indexed dataId);\n    event OwnershipTransferred(uint256 indexed dataId, address indexed previousOwner, address indexed newOwner);\n\n    // List data for sale\n    function listData(string calldata _metadata, uint256 _price) external {\n        dataCounter++;\n        dataAssets[dataCounter] = Data(_metadata, _price, msg.sender, false, true);\n        emit DataListed(dataCounter, msg.sender, _price);\n    }\n}",
  "sourcePath": "/Users/kirat/Desktop/Startup:project ideas/Financez/Financez/blockchain/data_trading/contracts/DataAsset.sol",
  "compiler": {
    "name": "solc",
    "version": "0.5.16+commit.9c3226ce.Emscripten.clang"
  },
  "schemaVersion": "3.4.16",
  "updatedAt": "2023-10-22T18:24:57.742Z",
  "networkType": "ethereum",
  "devdoc": {
    "methods": {}
  },
  "userdoc": {
    "methods": {}
  }
}