{
  "contractName": "DataAsset",
  "abi": [
    {
      "anonymous": false,
      "inputs": [
        {
          "indexed": true,
          "internalType": "uint256",
          "name": "dataId",
          "type": "uint256"
        },
        {
          "indexed": false,
          "internalType": "uint256",
          "name": "startTime",
          "type": "uint256"
        },
        {
          "indexed": false,
          "internalType": "uint256",
          "name": "endTime",
          "type": "uint256"
        }
      ],
      "name": "AuctionStarted",
      "type": "event"
    },
    {
      "anonymous": false,
      "inputs": [
        {
          "indexed": true,
          "internalType": "uint256",
          "name": "dataId",
          "type": "uint256"
        },
        {
          "indexed": true,
          "internalType": "address",
          "name": "owner",
          "type": "address"
        },
        {
          "indexed": false,
          "internalType": "uint256",
          "name": "price",
          "type": "uint256"
        }
      ],
      "name": "DataListed",
      "type": "event"
    },
    {
      "anonymous": false,
      "inputs": [
        {
          "indexed": true,
          "internalType": "uint256",
          "name": "dataId",
          "type": "uint256"
        },
        {
          "indexed": true,
          "internalType": "address",
          "name": "buyer",
          "type": "address"
        },
        {
          "indexed": true,
          "internalType": "address",
          "name": "seller",
          "type": "address"
        },
        {
          "indexed": false,
          "internalType": "uint256",
          "name": "price",
          "type": "uint256"
        }
      ],
      "name": "DataPurchased",
      "type": "event"
    },
    {
      "anonymous": false,
      "inputs": [
        {
          "indexed": true,
          "internalType": "uint256",
          "name": "dataId",
          "type": "uint256"
        }
      ],
      "name": "ListingCancelled",
      "type": "event"
    },
    {
      "anonymous": false,
      "inputs": [
        {
          "indexed": true,
          "internalType": "uint256",
          "name": "dataId",
          "type": "uint256"
        },
        {
          "indexed": true,
          "internalType": "address",
          "name": "bidder",
          "type": "address"
        },
        {
          "indexed": false,
          "internalType": "uint256",
          "name": "amount",
          "type": "uint256"
        }
      ],
      "name": "NewBid",
      "type": "event"
    },
    {
      "anonymous": false,
      "inputs": [
        {
          "indexed": true,
          "internalType": "uint256",
          "name": "dataId",
          "type": "uint256"
        },
        {
          "indexed": true,
          "internalType": "address",
          "name": "previousOwner",
          "type": "address"
        },
        {
          "indexed": true,
          "internalType": "address",
          "name": "newOwner",
          "type": "address"
        }
      ],
      "name": "OwnershipTransferred",
      "type": "event"
    },
    {
      "anonymous": false,
      "inputs": [
        {
          "indexed": true,
          "internalType": "uint256",
          "name": "dataId",
          "type": "uint256"
        },
        {
          "indexed": false,
          "internalType": "uint256",
          "name": "newPrice",
          "type": "uint256"
        }
      ],
      "name": "PriceUpdated",
      "type": "event"
    },
    {
      "constant": true,
      "inputs": [],
      "name": "ADMIN_ROLE",
      "outputs": [
        {
          "internalType": "bytes32",
          "name": "",
          "type": "bytes32"
        }
      ],
      "payable": false,
      "stateMutability": "view",
      "type": "function"
    },
    {
      "constant": true,
      "inputs": [
        {
          "internalType": "uint256",
          "name": "",
          "type": "uint256"
        }
      ],
      "name": "dataAssets",
      "outputs": [
        {
          "internalType": "string",
          "name": "metadata",
          "type": "string"
        },
        {
          "internalType": "uint256",
          "name": "price",
          "type": "uint256"
        },
        {
          "internalType": "address payable",
          "name": "owner",
          "type": "address"
        },
        {
          "internalType": "bool",
          "name": "isSold",
          "type": "bool"
        },
        {
          "internalType": "bool",
          "name": "isListed",
          "type": "bool"
        }
      ],
      "payable": false,
      "stateMutability": "view",
      "type": "function"
    },
    {
      "constant": true,
      "inputs": [
        {
          "internalType": "uint256",
          "name": "",
          "type": "uint256"
        }
      ],
      "name": "dataAuctions",
      "outputs": [
        {
          "internalType": "uint256",
          "name": "startPrice",
          "type": "uint256"
        },
        {
          "internalType": "uint256",
          "name": "endTime",
          "type": "uint256"
        },
        {
          "internalType": "address payable",
          "name": "highestBidder",
          "type": "address"
        },
        {
          "internalType": "uint256",
          "name": "highestBid",
          "type": "uint256"
        },
        {
          "internalType": "bool",
          "name": "active",
          "type": "bool"
        }
      ],
      "payable": false,
      "stateMutability": "view",
      "type": "function"
    },
    {
      "constant": true,
      "inputs": [],
      "name": "dataCounter",
      "outputs": [
        {
          "internalType": "uint256",
          "name": "",
          "type": "uint256"
        }
      ],
      "payable": false,
      "stateMutability": "view",
      "type": "function"
    },
    {
      "constant": true,
      "inputs": [
        {
          "internalType": "address",
          "name": "",
          "type": "address"
        }
      ],
      "name": "pendingWithdrawals",
      "outputs": [
        {
          "internalType": "uint256",
          "name": "",
          "type": "uint256"
        }
      ],
      "payable": false,
      "stateMutability": "view",
      "type": "function"
    },
    {
      "constant": false,
      "inputs": [
        {
          "internalType": "uint256",
          "name": "_dataId",
          "type": "uint256"
        },
        {
          "internalType": "uint256",
          "name": "_startPrice",
          "type": "uint256"
        },
        {
          "internalType": "uint256",
          "name": "_duration",
          "type": "uint256"
        }
      ],
      "name": "startAuction",
      "outputs": [],
      "payable": false,
      "stateMutability": "nonpayable",
      "type": "function"
    },
    {
      "constant": false,
      "inputs": [
        {
          "internalType": "uint256",
          "name": "_dataId",
          "type": "uint256"
        }
      ],
      "name": "bid",
      "outputs": [],
      "payable": true,
      "stateMutability": "payable",
      "type": "function"
    },
    {
      "constant": false,
      "inputs": [
        {
          "internalType": "uint256",
          "name": "_dataId",
          "type": "uint256"
        }
      ],
      "name": "endAuction",
      "outputs": [],
      "payable": false,
      "stateMutability": "nonpayable",
      "type": "function"
    },
    {
      "constant": false,
      "inputs": [
        {
          "internalType": "string",
          "name": "_metadata",
          "type": "string"
        },
        {
          "internalType": "uint256",
          "name": "_price",
          "type": "uint256"
        }
      ],
      "name": "listData",
      "outputs": [],
      "payable": false,
      "stateMutability": "nonpayable",
      "type": "function"
    },
    {
      "constant": false,
      "inputs": [
        {
          "internalType": "uint256",
          "name": "_dataId",
          "type": "uint256"
        }
      ],
      "name": "purchaseData",
      "outputs": [],
      "payable": true,
      "stateMutability": "payable",
      "type": "function"
    },
    {
      "constant": false,
      "inputs": [],
      "name": "withdrawFunds",
      "outputs": [],
      "payable": false,
      "stateMutability": "nonpayable",
      "type": "function"
    },
    {
      "constant": false,
      "inputs": [
        {
          "internalType": "uint256",
          "name": "_dataId",
          "type": "uint256"
        },
        {
          "internalType": "uint256",
          "name": "_newPrice",
          "type": "uint256"
        }
      ],
      "name": "updatePrice",
      "outputs": [],
      "payable": false,
      "stateMutability": "nonpayable",
      "type": "function"
    },
    {
      "constant": false,
      "inputs": [
        {
          "internalType": "uint256",
          "name": "_dataId",
          "type": "uint256"
        }
      ],
      "name": "cancelListing",
      "outputs": [],
      "payable": false,
      "stateMutability": "nonpayable",
      "type": "function"
    },
    {
      "constant": false,
      "inputs": [
        {
          "internalType": "uint256",
          "name": "_dataId",
          "type": "uint256"
        },
        {
          "internalType": "address payable",
          "name": "_newOwner",
          "type": "address"
        }
      ],
      "name": "transferOwnership",
      "outputs": [],
      "payable": false,
      "stateMutability": "nonpayable",
      "type": "function"
    }
  ],
  "bytecode": "0x6080604052600060015534801561001557600080fd5b506111d5806100256000396000f3fe6080604052600436106100dd5760003560e01c806382367b2d1161007f5780639418feaa116100595780639418feaa1461036d578063b9a2de3a14610382578063f3f43703146103ac578063fd4bf159146103df576100dd565b806382367b2d146102ea57806384c4f5941461031a57806391e078bb14610337576100dd565b8063305a67a8116100bb578063305a67a8146101af578063454a2ab3146101d957806366dda47f146101f657806375b238fc146102c3576100dd565b80631fc9432e146100e257806324600fc31461016157806329507f7314610176575b600080fd5b3480156100ee57600080fd5b5061015f6004803603604081101561010557600080fd5b81019060208101813564010000000081111561012057600080fd5b82018360208201111561013257600080fd5b8035906020019184600183028401116401000000008311171561015457600080fd5b91935091503561043e565b005b34801561016d57600080fd5b5061015f610572565b34801561018257600080fd5b5061015f6004803603604081101561019957600080fd5b50803590602001356001600160a01b03166105fd565b3480156101bb57600080fd5b5061015f600480360360208110156101d257600080fd5b50356106b8565b61015f600480360360208110156101ef57600080fd5b50356107a5565b34801561020257600080fd5b506102206004803603602081101561021957600080fd5b5035610969565b6040805160208082018790526001600160a01b038616928201929092528315156060820152821515608082015260a080825287519082015286519091829160c083019189019080838360005b8381101561028457818101518382015260200161026c565b50505050905090810190601f1680156102b15780820380516001836020036101000a031916815260200191505b50965050505050505060405180910390f35b3480156102cf57600080fd5b506102d8610a33565b60408051918252519081900360200190f35b3480156102f657600080fd5b5061015f6004803603604081101561030d57600080fd5b5080359060200135610a55565b61015f6004803603602081101561033057600080fd5b5035610ba7565b34801561034357600080fd5b5061015f6004803603606081101561035a57600080fd5b5080359060208101359060400135610d3a565b34801561037957600080fd5b506102d8610e63565b34801561038e57600080fd5b5061015f600480360360208110156103a557600080fd5b5035610e69565b3480156103b857600080fd5b506102d8600480360360208110156103cf57600080fd5b50356001600160a01b0316610fbf565b3480156103eb57600080fd5b506104096004803603602081101561040257600080fd5b5035610fd1565b6040805195865260208601949094526001600160a01b0390921684840152606084015215156080830152519081900360a00190f35b60018054810190556040805160c06020601f8601819004028201810190925260a081018481529091829190869086908190850183828082843760009201829052509385525050506020808301859052336040808501919091526060840183905260016080909401849052925482528181529190208251805191926104c79284929091019061100e565b506020828101516001808401919091556040808501516002909401805460608701516080909701511515600160a81b0260ff60a81b19971515600160a01b0260ff60a01b196001600160a01b039098166001600160a01b03199093169290921796909616179590951693909317909355915481518481529151339391927fda6e3f4579b83369067bea5d00c3f6f4ea90ea71243054b08c3c0d93a5a1bae592908290030190a3505050565b33600090815260026020526040902054806105be5760405162461bcd60e51b815260040180806020018281038252602281526020018061112b6022913960400191505060405180910390fd5b336000818152600260205260408082208290555183156108fc0291849190818181858888f193505050501580156105f9573d6000803e3d6000fd5b5050565b600082815260208190526040902060028101546001600160a01b031633146106565760405162461bcd60e51b815260040180806020018281038252602e815260200180611173602e913960400191505060405180910390fd5b60028101546040516001600160a01b0380851692169085907f16b85f49bf01212961345d3016c9a531894accf62eb7680f2045d79185cc0ec090600090a460020180546001600160a01b0319166001600160a01b039290921691909117905550565b600081815260208190526040902060028101546001600160a01b031633146107115760405162461bcd60e51b815260040180806020018281038252602681526020018061114d6026913960400191505060405180910390fd5b6002810154600160a81b900460ff16610767576040805162461bcd60e51b81526020600482015260136024820152722230ba309034b9903737ba103634b9ba32b21760691b604482015290519081900360640190fd5b60028101805460ff60a81b1916905560405182907f411aee90354c51b1b04cd563fcab2617142a9d50da19232d888547c8a1b7fd8a90600090a25050565b60008181526003602052604090206004015460ff16610800576040805162461bcd60e51b815260206004820152601260248201527141756374696f6e206e6f742061637469766560701b604482015290519081900360640190fd5b600081815260036020526040902060010154421115610856576040805162461bcd60e51b815260206004820152600d60248201526c105d58dd1a5bdb88195b991959609a1b604482015290519081900360640190fd5b6000818152600360208190526040909120015434116108aa576040805162461bcd60e51b815260206004820152600b60248201526a42696420746f6f206c6f7760a81b604482015290519081900360640190fd5b6000818152600360205260409020600201546001600160a01b0316156108ff576000818152600360208181526040808420928301546002938401546001600160a01b0316855292909152909120805490910190555b6000818152600360208181526040928390206002810180546001600160a01b03191633908117909155349190930181905583519081529251919284927f558a0d5d5468d74b0db24c74eb348b42271c2ebb4c9e953ced38aaed95fa4361929181900390910190a350565b6000602081815291815260409081902080548251601f6002600019610100600186161502019093169290920491820185900485028101850190935280835290928391908301828280156109fd5780601f106109d2576101008083540402835291602001916109fd565b820191906000526020600020905b8154815290600101906020018083116109e057829003601f168201915b50505060018401546002909401549293926001600160a01b038116925060ff600160a01b820481169250600160a81b9091041685565b604080516941444d494e5f524f4c4560b01b8152905190819003600a01902081565b600082815260208190526040902060028101546001600160a01b03163314610aae5760405162461bcd60e51b81526004018080602001828103825260238152602001806111086023913960400191505060405180910390fd5b6002810154600160a01b900460ff1615610b0f576040805162461bcd60e51b815260206004820152601e60248201527f43616e6e6f74207570646174652070726963652061667465722073616c650000604482015290519081900360640190fd5b6002810154600160a81b900460ff16610b65576040805162461bcd60e51b81526020600482015260136024820152722230ba309034b9903737ba103634b9ba32b21760691b604482015290519081900360640190fd5b6001810182905560408051838152905184917f945c1c4e99aa89f648fbfe3df471b916f719e16d960fcec0737d4d56bd696838919081900360200190a2505050565b60008181526020819052604090206002810154600160a81b900460ff16610c0b576040805162461bcd60e51b81526020600482015260136024820152722230ba309034b9903737ba103634b9ba32b21760691b604482015290519081900360640190fd5b6002810154600160a01b900460ff1615610c64576040805162461bcd60e51b81526020600482015260156024820152742230ba309034b99030b63932b0b23c9039b7b6321760591b604482015290519081900360640190fd5b80600101543414610cb4576040805162461bcd60e51b815260206004820152601560248201527424b731b7b93932b1ba1022ba3432b91039b2b73a1760591b604482015290519081900360640190fd5b600281810180546001600160a01b03908116600090815260209384526040908190208054340190558254600160a01b60ff60a01b199091161760ff60a81b1981169093556001850154815190815290519290911692339286927fd43f5f34801f2e70be3032e4807e0460394b94b06f8ec19842703ce34dc1874b92908290030190a45050565b6000838152602081905260409020600201546001600160a01b03163314610d925760405162461bcd60e51b81526004018080602001828103825260248152602001806110e46024913960400191505060405180910390fd5b610d9a61108c565b506040805160a0810182528381524283810160208084018281526000858701818152606087018281526001608089018181528d85526003808852948b90208a51815595519186019190915591516002850180546001600160a01b0319166001600160a01b039092169190911790555191830191909155516004909101805460ff191691151591909117905584519283528201528251919286927f44c53be110c6aa83aa83cd02e351ed172359268272ee1b5d31c0fe48db35c6c79281900390910190a250505050565b60015481565b6000818152600360205260409020600101544211610ec6576040805162461bcd60e51b8152602060048201526015602482015274105d58dd1a5bdb881b9bdd081e595d08195b991959605a1b604482015290519081900360640190fd5b60008181526003602052604090206004015460ff16610f24576040805162461bcd60e51b8152602060048201526015602482015274105d58dd1a5bdb88185b1c9958591e48195b991959605a1b604482015290519081900360640190fd5b600081815260036020818152604080842060048101805460ff1916905592830154848352818520600290810180546001600160a01b03908116885282865284882080549094019093558787529401805485546001600160a01b0319169083161794859055549285905290519181169392169184917f16b85f49bf01212961345d3016c9a531894accf62eb7680f2045d79185cc0ec09190a450565b60026020526000908152604090205481565b600360208190526000918252604090912080546001820154600283015493830154600490930154919390926001600160a01b039091169160ff1685565b828054600181600116156101000203166002900490600052602060002090601f016020900481019282601f1061104f57805160ff191683800117855561107c565b8280016001018555821561107c579182015b8281111561107c578251825591602001919060010190611061565b506110889291506110c6565b5090565b6040518060a00160405280600081526020016000815260200160006001600160a01b03168152602001600081526020016000151581525090565b6110e091905b8082111561108857600081556001016110cc565b9056fe4f6e6c7920746865206f776e65722063616e207374617274207468652061756374696f6e4f6e6c7920746865206f776e65722063616e20757064617465207468652070726963654e6f2066756e647320617661696c61626c6520666f72207769746864726177616c2e4f6e6c7920746865206f776e65722063616e2063616e63656c20746865206c697374696e672e4f6e6c79207468652063757272656e74206f776e65722063616e207472616e73666572206f776e6572736869702ea265627a7a72315820ff12809fa2f0955cb9f82d26107994636dde7cb861e648b0ec4d01d8a353ccdd64736f6c63430005100032",
  "source": "pragma solidity >=0.4.22 <0.7.0;\n\ncontract DataAsset {\n\n    // Define a new role identifier for our app\n    bytes32 public constant ADMIN_ROLE = keccak256(\"ADMIN_ROLE\");\n\n    // Struct to represent a data asset\n    struct Data {\n        string metadata;\n        uint256 price;\n        address payable owner;\n        bool isSold;\n        bool isListed;\n    }\n\n    // Add this at the beginning of your contract\n    struct Auction {\n        uint256 startPrice;\n        uint256 endTime;\n        address payable highestBidder;\n        uint256 highestBid;\n        bool active;\n    }\n\n    // Mapping from data ID to Data struct\n    mapping(uint256 => Data) public dataAssets;\n    uint256 public dataCounter = 0;\n\n    // Mapping to track pending withdrawals\n    mapping(address => uint256) public pendingWithdrawals;\n\n    mapping(uint256 => Auction) public dataAuctions;\n\n    // Events\n    event DataListed(uint256 indexed dataId, address indexed owner, uint256 price);\n    event DataPurchased(uint256 indexed dataId, address indexed buyer, address indexed seller, uint256 price);\n    event PriceUpdated(uint256 indexed dataId, uint256 newPrice);\n    event ListingCancelled(uint256 indexed dataId);\n    event OwnershipTransferred(uint256 indexed dataId, address indexed previousOwner, address indexed newOwner);\n    \n    event AuctionStarted(uint256 indexed dataId, uint256 startTime, uint256 endTime);\n    event NewBid(uint256 indexed dataId, address indexed bidder, uint256 amount);\n\n    function startAuction(uint256 _dataId, uint256 _startPrice, uint256 _duration) external {\n        require(dataAssets[_dataId].owner == msg.sender, \"Only the owner can start the auction\");\n        Auction memory newAuction = Auction(_startPrice, block.timestamp + _duration, address(0), 0, true);\n        dataAuctions[_dataId] = newAuction;\n        emit AuctionStarted(_dataId, block.timestamp, block.timestamp + _duration);\n    }\n\n    function bid(uint256 _dataId) external payable {\n        require(dataAuctions[_dataId].active, \"Auction not active\");\n        require(block.timestamp <= dataAuctions[_dataId].endTime, \"Auction ended\");\n        require(msg.value > dataAuctions[_dataId].highestBid, \"Bid too low\");\n\n        if (dataAuctions[_dataId].highestBidder != address(0)) {\n            pendingWithdrawals[dataAuctions[_dataId].highestBidder] += dataAuctions[_dataId].highestBid;  // Refund the previous highest bidder\n        }\n\n        dataAuctions[_dataId].highestBidder = msg.sender;\n        dataAuctions[_dataId].highestBid = msg.value;\n        emit NewBid(_dataId, msg.sender, msg.value);\n    }\n\n    function endAuction(uint256 _dataId) external {\n        require(block.timestamp > dataAuctions[_dataId].endTime, \"Auction not yet ended\");\n        require(dataAuctions[_dataId].active, \"Auction already ended\");\n\n        dataAuctions[_dataId].active = false;\n        pendingWithdrawals[dataAssets[_dataId].owner] += dataAuctions[_dataId].highestBid;  // Add funds to the owner's withdrawals\n\n        dataAssets[_dataId].owner = dataAuctions[_dataId].highestBidder;\n        emit OwnershipTransferred(_dataId, dataAssets[_dataId].owner, dataAuctions[_dataId].highestBidder);\n    }\n    // List data for sale\n    function listData(string calldata _metadata, uint256 _price) external {\n        dataCounter++;\n        dataAssets[dataCounter] = Data(_metadata, _price, msg.sender, false, true);\n        emit DataListed(dataCounter, msg.sender, _price);\n    }\n\n    // Purchase data\n    function purchaseData(uint256 _dataId) external payable {\n        Data storage dataToPurchase = dataAssets[_dataId];\n\n        require(dataToPurchase.isListed, \"Data is not listed.\");\n        require(!dataToPurchase.isSold, \"Data is already sold.\");\n        require(msg.value == dataToPurchase.price, \"Incorrect Ether sent.\");\n\n        // Accumulate the funds within the contract for the owner\n        pendingWithdrawals[dataToPurchase.owner] += msg.value;\n\n        // Update the data's status and owner\n        dataToPurchase.isSold = true;\n        dataToPurchase.isListed = false;\n\n        emit DataPurchased(_dataId, msg.sender, dataToPurchase.owner, dataToPurchase.price);\n    }\n\n    // Withdraw accumulated funds\n    function withdrawFunds() external {\n        uint256 amount = pendingWithdrawals[msg.sender];\n        require(amount > 0, \"No funds available for withdrawal.\");\n\n        pendingWithdrawals[msg.sender] = 0;\n        msg.sender.transfer(amount);\n    }\n\n    // Update the price of a listed data asset\n    function updatePrice(uint256 _dataId, uint256 _newPrice) external {\n        Data storage dataToUpdate = dataAssets[_dataId];\n\n        require(msg.sender == dataToUpdate.owner, \"Only the owner can update the price\");\n        require(!dataToUpdate.isSold, \"Cannot update price after sale\");\n        require(dataToUpdate.isListed, \"Data is not listed.\");\n\n        dataToUpdate.price = _newPrice;\n\n        emit PriceUpdated(_dataId, _newPrice);\n    }\n\n    // Cancel a data listing\n    function cancelListing(uint256 _dataId) external {\n        Data storage dataToCancel = dataAssets[_dataId];\n\n        require(msg.sender == dataToCancel.owner, \"Only the owner can cancel the listing.\");\n        require(dataToCancel.isListed, \"Data is not listed.\");\n\n        dataToCancel.isListed = false;\n        emit ListingCancelled(_dataId);\n    }\n\n    // Transfer ownership of a data asset\n    function transferOwnership(uint256 _dataId, address payable _newOwner) external {\n        Data storage dataToTransfer = dataAssets[_dataId];\n\n        require(msg.sender == dataToTransfer.owner, \"Only the current owner can transfer ownership.\");\n\n        emit OwnershipTransferred(_dataId, dataToTransfer.owner, _newOwner);\n        dataToTransfer.owner = _newOwner;\n    }\n\n    \n    \n\n\n\n}",
  "sourcePath": "/Users/kirat/Desktop/Startup:project ideas/Financez/Financez/blockchain/data_trading/contracts/DataAsset.sol",
  "compiler": {
    "name": "solc",
    "version": "0.5.16+commit.9c3226ce.Emscripten.clang"
  },
  "schemaVersion": "3.4.16",
  "updatedAt": "2023-11-07T19:05:42.115Z",
  "networkType": "ethereum",
  "devdoc": {
    "methods": {}
  },
  "userdoc": {
    "methods": {}
  }
}