{
  "contractName": "DataAsset",
  "abi": [
    {
      "anonymous": false,
      "inputs": [
        {
          "indexed": true,
          "internalType": "uint256",
          "name": "dataId",
          "type": "uint256"
        },
        {
          "indexed": true,
          "internalType": "address",
          "name": "owner",
          "type": "address"
        },
        {
          "indexed": false,
          "internalType": "uint256",
          "name": "price",
          "type": "uint256"
        }
      ],
      "name": "DataListed",
      "type": "event"
    },
    {
      "anonymous": false,
      "inputs": [
        {
          "indexed": true,
          "internalType": "uint256",
          "name": "dataId",
          "type": "uint256"
        },
        {
          "indexed": true,
          "internalType": "address",
          "name": "buyer",
          "type": "address"
        },
        {
          "indexed": true,
          "internalType": "address",
          "name": "seller",
          "type": "address"
        },
        {
          "indexed": false,
          "internalType": "uint256",
          "name": "price",
          "type": "uint256"
        }
      ],
      "name": "DataPurchased",
      "type": "event"
    },
    {
      "anonymous": false,
      "inputs": [
        {
          "indexed": true,
          "internalType": "uint256",
          "name": "dataId",
          "type": "uint256"
        }
      ],
      "name": "ListingCancelled",
      "type": "event"
    },
    {
      "anonymous": false,
      "inputs": [
        {
          "indexed": true,
          "internalType": "uint256",
          "name": "dataId",
          "type": "uint256"
        },
        {
          "indexed": true,
          "internalType": "address",
          "name": "previousOwner",
          "type": "address"
        },
        {
          "indexed": true,
          "internalType": "address",
          "name": "newOwner",
          "type": "address"
        }
      ],
      "name": "OwnershipTransferred",
      "type": "event"
    },
    {
      "anonymous": false,
      "inputs": [
        {
          "indexed": true,
          "internalType": "uint256",
          "name": "dataId",
          "type": "uint256"
        },
        {
          "indexed": false,
          "internalType": "uint256",
          "name": "newPrice",
          "type": "uint256"
        }
      ],
      "name": "PriceUpdated",
      "type": "event"
    },
    {
      "constant": true,
      "inputs": [],
      "name": "ADMIN_ROLE",
      "outputs": [
        {
          "internalType": "bytes32",
          "name": "",
          "type": "bytes32"
        }
      ],
      "payable": false,
      "stateMutability": "view",
      "type": "function"
    },
    {
      "constant": true,
      "inputs": [
        {
          "internalType": "uint256",
          "name": "",
          "type": "uint256"
        }
      ],
      "name": "dataAssets",
      "outputs": [
        {
          "internalType": "string",
          "name": "metadata",
          "type": "string"
        },
        {
          "internalType": "uint256",
          "name": "price",
          "type": "uint256"
        },
        {
          "internalType": "address payable",
          "name": "owner",
          "type": "address"
        },
        {
          "internalType": "bool",
          "name": "isSold",
          "type": "bool"
        },
        {
          "internalType": "bool",
          "name": "isListed",
          "type": "bool"
        }
      ],
      "payable": false,
      "stateMutability": "view",
      "type": "function"
    },
    {
      "constant": true,
      "inputs": [],
      "name": "dataCounter",
      "outputs": [
        {
          "internalType": "uint256",
          "name": "",
          "type": "uint256"
        }
      ],
      "payable": false,
      "stateMutability": "view",
      "type": "function"
    },
    {
      "constant": true,
      "inputs": [
        {
          "internalType": "address",
          "name": "",
          "type": "address"
        }
      ],
      "name": "pendingWithdrawals",
      "outputs": [
        {
          "internalType": "uint256",
          "name": "",
          "type": "uint256"
        }
      ],
      "payable": false,
      "stateMutability": "view",
      "type": "function"
    },
    {
      "constant": false,
      "inputs": [
        {
          "internalType": "string",
          "name": "_metadata",
          "type": "string"
        },
        {
          "internalType": "uint256",
          "name": "_price",
          "type": "uint256"
        }
      ],
      "name": "listData",
      "outputs": [],
      "payable": false,
      "stateMutability": "nonpayable",
      "type": "function"
    },
    {
      "constant": false,
      "inputs": [
        {
          "internalType": "uint256",
          "name": "_dataId",
          "type": "uint256"
        }
      ],
      "name": "purchaseData",
      "outputs": [],
      "payable": true,
      "stateMutability": "payable",
      "type": "function"
    },
    {
      "constant": false,
      "inputs": [],
      "name": "withdrawFunds",
      "outputs": [],
      "payable": false,
      "stateMutability": "nonpayable",
      "type": "function"
    },
    {
      "constant": false,
      "inputs": [
        {
          "internalType": "uint256",
          "name": "_dataId",
          "type": "uint256"
        },
        {
          "internalType": "uint256",
          "name": "_newPrice",
          "type": "uint256"
        }
      ],
      "name": "updatePrice",
      "outputs": [],
      "payable": false,
      "stateMutability": "nonpayable",
      "type": "function"
    },
    {
      "constant": false,
      "inputs": [
        {
          "internalType": "uint256",
          "name": "_dataId",
          "type": "uint256"
        }
      ],
      "name": "cancelListing",
      "outputs": [],
      "payable": false,
      "stateMutability": "nonpayable",
      "type": "function"
    },
    {
      "constant": false,
      "inputs": [
        {
          "internalType": "uint256",
          "name": "_dataId",
          "type": "uint256"
        },
        {
          "internalType": "address payable",
          "name": "_newOwner",
          "type": "address"
        }
      ],
      "name": "transferOwnership",
      "outputs": [],
      "payable": false,
      "stateMutability": "nonpayable",
      "type": "function"
    }
  ],
  "bytecode": "0x6080604052600060015534801561001557600080fd5b50610bcf806100256000396000f3fe6080604052600436106100915760003560e01c806375b238fc1161005957806375b238fc1461025a57806382367b2d1461028157806384c4f594146102b15780639418feaa146102ce578063f3f43703146102e357610091565b80631fc9432e1461009657806324600fc31461011557806329507f731461012a578063305a67a81461016357806366dda47f1461018d575b600080fd5b3480156100a257600080fd5b50610113600480360360408110156100b957600080fd5b8101906020810181356401000000008111156100d457600080fd5b8201836020820111156100e657600080fd5b8035906020019184600183028401116401000000008311171561010857600080fd5b919350915035610316565b005b34801561012157600080fd5b5061011361044a565b34801561013657600080fd5b506101136004803603604081101561014d57600080fd5b50803590602001356001600160a01b03166104d5565b34801561016f57600080fd5b506101136004803603602081101561018657600080fd5b5035610590565b34801561019957600080fd5b506101b7600480360360208110156101b057600080fd5b503561067d565b6040805160208082018790526001600160a01b038616928201929092528315156060820152821515608082015260a080825287519082015286519091829160c083019189019080838360005b8381101561021b578181015183820152602001610203565b50505050905090810190601f1680156102485780820380516001836020036101000a031916815260200191505b50965050505050505060405180910390f35b34801561026657600080fd5b5061026f610747565b60408051918252519081900360200190f35b34801561028d57600080fd5b50610113600480360360408110156102a457600080fd5b5080359060200135610769565b610113600480360360208110156102c757600080fd5b50356108bb565b3480156102da57600080fd5b5061026f610a4e565b3480156102ef57600080fd5b5061026f6004803603602081101561030657600080fd5b50356001600160a01b0316610a54565b60018054810190556040805160c06020601f8601819004028201810190925260a0810184815290918291908690869081908501838280828437600092018290525093855250505060208083018590523360408085019190915260608401839052600160809094018490529254825281815291902082518051919261039f92849290910190610a66565b506020828101516001808401919091556040808501516002909401805460608701516080909701511515600160a81b0260ff60a81b19971515600160a01b0260ff60a01b196001600160a01b039098166001600160a01b03199093169290921796909616179590951693909317909355915481518481529151339391927fda6e3f4579b83369067bea5d00c3f6f4ea90ea71243054b08c3c0d93a5a1bae592908290030190a3505050565b33600090815260026020526040902054806104965760405162461bcd60e51b8152600401808060200182810382526022815260200180610b256022913960400191505060405180910390fd5b336000818152600260205260408082208290555183156108fc0291849190818181858888f193505050501580156104d1573d6000803e3d6000fd5b5050565b600082815260208190526040902060028101546001600160a01b0316331461052e5760405162461bcd60e51b815260040180806020018281038252602e815260200180610b6d602e913960400191505060405180910390fd5b60028101546040516001600160a01b0380851692169085907f16b85f49bf01212961345d3016c9a531894accf62eb7680f2045d79185cc0ec090600090a460020180546001600160a01b0319166001600160a01b039290921691909117905550565b600081815260208190526040902060028101546001600160a01b031633146105e95760405162461bcd60e51b8152600401808060200182810382526026815260200180610b476026913960400191505060405180910390fd5b6002810154600160a81b900460ff1661063f576040805162461bcd60e51b81526020600482015260136024820152722230ba309034b9903737ba103634b9ba32b21760691b604482015290519081900360640190fd5b60028101805460ff60a81b1916905560405182907f411aee90354c51b1b04cd563fcab2617142a9d50da19232d888547c8a1b7fd8a90600090a25050565b6000602081815291815260409081902080548251601f6002600019610100600186161502019093169290920491820185900485028101850190935280835290928391908301828280156107115780601f106106e657610100808354040283529160200191610711565b820191906000526020600020905b8154815290600101906020018083116106f457829003601f168201915b50505060018401546002909401549293926001600160a01b038116925060ff600160a01b820481169250600160a81b9091041685565b604080516941444d494e5f524f4c4560b01b8152905190819003600a01902081565b600082815260208190526040902060028101546001600160a01b031633146107c25760405162461bcd60e51b8152600401808060200182810382526023815260200180610b026023913960400191505060405180910390fd5b6002810154600160a01b900460ff1615610823576040805162461bcd60e51b815260206004820152601e60248201527f43616e6e6f74207570646174652070726963652061667465722073616c650000604482015290519081900360640190fd5b6002810154600160a81b900460ff16610879576040805162461bcd60e51b81526020600482015260136024820152722230ba309034b9903737ba103634b9ba32b21760691b604482015290519081900360640190fd5b6001810182905560408051838152905184917f945c1c4e99aa89f648fbfe3df471b916f719e16d960fcec0737d4d56bd696838919081900360200190a2505050565b60008181526020819052604090206002810154600160a81b900460ff1661091f576040805162461bcd60e51b81526020600482015260136024820152722230ba309034b9903737ba103634b9ba32b21760691b604482015290519081900360640190fd5b6002810154600160a01b900460ff1615610978576040805162461bcd60e51b81526020600482015260156024820152742230ba309034b99030b63932b0b23c9039b7b6321760591b604482015290519081900360640190fd5b806001015434146109c8576040805162461bcd60e51b815260206004820152601560248201527424b731b7b93932b1ba1022ba3432b91039b2b73a1760591b604482015290519081900360640190fd5b600281810180546001600160a01b03908116600090815260209384526040908190208054340190558254600160a01b60ff60a01b199091161760ff60a81b1981169093556001850154815190815290519290911692339286927fd43f5f34801f2e70be3032e4807e0460394b94b06f8ec19842703ce34dc1874b92908290030190a45050565b60015481565b60026020526000908152604090205481565b828054600181600116156101000203166002900490600052602060002090601f016020900481019282601f10610aa757805160ff1916838001178555610ad4565b82800160010185558215610ad4579182015b82811115610ad4578251825591602001919060010190610ab9565b50610ae0929150610ae4565b5090565b610afe91905b80821115610ae05760008155600101610aea565b9056fe4f6e6c7920746865206f776e65722063616e20757064617465207468652070726963654e6f2066756e647320617661696c61626c6520666f72207769746864726177616c2e4f6e6c7920746865206f776e65722063616e2063616e63656c20746865206c697374696e672e4f6e6c79207468652063757272656e74206f776e65722063616e207472616e73666572206f776e6572736869702ea265627a7a72315820f675985282469145b078ccd4b1c885df7a5b62092451f3c0601161e6d06c195b64736f6c63430005100032",
  "source": "pragma solidity >=0.4.22 <0.7.0;\n\ncontract DataAsset {\n\n    // Define a new role identifier for our app\n    bytes32 public constant ADMIN_ROLE = keccak256(\"ADMIN_ROLE\");\n\n    // Struct to represent a data asset\n    struct Data {\n        string metadata;\n        uint256 price;\n        address payable owner;\n        bool isSold;\n        bool isListed;\n    }\n\n    // Mapping from data ID to Data struct\n    mapping(uint256 => Data) public dataAssets;\n    uint256 public dataCounter = 0;\n\n    // Mapping to track pending withdrawals\n    mapping(address => uint256) public pendingWithdrawals;\n\n    // Events\n    event DataListed(uint256 indexed dataId, address indexed owner, uint256 price);\n    event DataPurchased(uint256 indexed dataId, address indexed buyer, address indexed seller, uint256 price);\n    event PriceUpdated(uint256 indexed dataId, uint256 newPrice);\n    event ListingCancelled(uint256 indexed dataId);\n    event OwnershipTransferred(uint256 indexed dataId, address indexed previousOwner, address indexed newOwner);\n    \n    // List data for sale\n    function listData(string calldata _metadata, uint256 _price) external {\n        dataCounter++;\n        dataAssets[dataCounter] = Data(_metadata, _price, msg.sender, false, true);\n        emit DataListed(dataCounter, msg.sender, _price);\n    }\n\n    // Purchase data\n    function purchaseData(uint256 _dataId) external payable {\n        Data storage dataToPurchase = dataAssets[_dataId];\n\n        require(dataToPurchase.isListed, \"Data is not listed.\");\n        require(!dataToPurchase.isSold, \"Data is already sold.\");\n        require(msg.value == dataToPurchase.price, \"Incorrect Ether sent.\");\n\n        // Accumulate the funds within the contract for the owner\n        pendingWithdrawals[dataToPurchase.owner] += msg.value;\n\n        // Update the data's status and owner\n        dataToPurchase.isSold = true;\n        dataToPurchase.isListed = false;\n\n        emit DataPurchased(_dataId, msg.sender, dataToPurchase.owner, dataToPurchase.price);\n    }\n\n    // Withdraw accumulated funds\n    function withdrawFunds() external {\n        uint256 amount = pendingWithdrawals[msg.sender];\n        require(amount > 0, \"No funds available for withdrawal.\");\n\n        pendingWithdrawals[msg.sender] = 0;\n        msg.sender.transfer(amount);\n    }\n\n    // Update the price of a listed data asset\n    function updatePrice(uint256 _dataId, uint256 _newPrice) external {\n        Data storage dataToUpdate = dataAssets[_dataId];\n\n        require(msg.sender == dataToUpdate.owner, \"Only the owner can update the price\");\n        require(!dataToUpdate.isSold, \"Cannot update price after sale\");\n        require(dataToUpdate.isListed, \"Data is not listed.\");\n\n        dataToUpdate.price = _newPrice;\n\n        emit PriceUpdated(_dataId, _newPrice);\n    }\n\n    // Cancel a data listing\n    function cancelListing(uint256 _dataId) external {\n        Data storage dataToCancel = dataAssets[_dataId];\n\n        require(msg.sender == dataToCancel.owner, \"Only the owner can cancel the listing.\");\n        require(dataToCancel.isListed, \"Data is not listed.\");\n\n        dataToCancel.isListed = false;\n        emit ListingCancelled(_dataId);\n    }\n\n    // Transfer ownership of a data asset\n    function transferOwnership(uint256 _dataId, address payable _newOwner) external {\n        Data storage dataToTransfer = dataAssets[_dataId];\n\n        require(msg.sender == dataToTransfer.owner, \"Only the current owner can transfer ownership.\");\n\n        emit OwnershipTransferred(_dataId, dataToTransfer.owner, _newOwner);\n        dataToTransfer.owner = _newOwner;\n    }\n\n    \n    \n\n\n\n}",
  "sourcePath": "/Users/kirat/Desktop/Startup:project ideas/Financez/Financez/blockchain/data_trading/contracts/DataAsset.sol",
  "compiler": {
    "name": "solc",
    "version": "0.5.16+commit.9c3226ce.Emscripten.clang"
  },
  "schemaVersion": "3.4.16",
  "updatedAt": "2023-10-24T04:06:34.156Z",
  "networkType": "ethereum",
  "devdoc": {
    "methods": {}
  },
  "userdoc": {
    "methods": {}
  }
}